:100000000C9463000C948B000C948B000C948B006C
:100010000C948B000C948B000C948B000C94C307F5
:100020000C948B000C948B000C948B000C948B0024
:100030000C948B000C948B000C948B000C948B0014
:100040000C9479070C948B000C9445080C941F08B1
:100050000C948B000C948B000C948B000C948B00F4
:100060000C948B000C948B000200000000240027ED
:10007000002A0000000000250028002B00000000DE
:100080000800020100000304070000000000000057
:1000900000000000002300260029000404040404DA
:1000A0000404040202020202020303030303030125
:1000B00002040810204080010204081020010204FC
:1000C00008102000770811241FBECFEFD8E0DEBF54
:1000D000CDBF22E0ACE9B1E001C01D92AE37B2075E
:1000E000E1F711E0A0E0B1E0E0E6FCE102C005903C
:1000F0000D92AC39B107D9F710E0C3E6D0E004C0E7
:100100002197FE010E94280EC236D107C9F70E942E
:10011000E2080C942E0E0C940000CF92DF92EF9226
:10012000FF92CF93DF93B0917202A0E08111AB2FC9
:100130008091730290E0880F991FAC014F565F4F7A
:10014000C0907802D0907902E0907A02F0907B0221
:1001500030E020E0FA01C591D491E881B90190E046
:1001600080E0EB23EA130AC02F5F3F4F6C157D053B
:100170008E059F0578F36FEF7FEFCB01DF91CF9175
:10018000FF90EF90DF90CF900895CF92DF92EF92A3
:10019000FF92CF93809171028C3009F44FC038F4F4
:1001A0008B30F1F060E070E080EC9FE741C085515A
:1001B0008230C0F7C0916D026C2F70E0762F6627F9
:1001C00066277F7780916E02682B90E080E00E9426
:1001D000C80B2DEC3CEC4CEC5DE30E94290C4AC0B2
:1001E00060916D0270E090E080E00E94C80B6B01AE
:1001F0007C01C0916E02C7FF0AC0AC019B0160E0A8
:1002000070E080E89FEB0E94E70C6B017C01CF70EF
:100210006C2F70E090E080E00E94CA0B2DEC3CEC6B
:100220004CEC5DE30E94290CA70196010E94E80CAA
:10023000CF91FF90EF90DF90CF900895C0916D0225
:100240006C2F70E090E080E00E94C80B6B017C0195
:1002500060916E026F7070E090E080E00E94CA0BC7
:100260002DEC3CEC4CEC5DE30E94290CA7019601BF
:100270000E94E80CC7FFDCCF9058DACF90E0FC0179
:10028000E358FF4F2491FC01E155FF4F3491FC01ED
:10029000E556FF4FE491EE23C9F0222339F02330D5
:1002A00001F1A8F4213019F1223029F1F0E0EE0F2C
:1002B000FF1FED58FF4FA591B4918FB7F894EC91C3
:1002C000611126C030953E233C938FBF089527309F
:1002D000A9F02830C9F0243049F7809180008F7D43
:1002E00003C0809180008F7780938000DFCF84B53A
:1002F0008F7784BDDBCF84B58F7DFBCF8091B0003D
:100300008F778093B000D2CF8091B0008F7DF9CFEE
:100310003E2BDACFCF93DF9390E0FC01E155FF4F06
:10032000249185569F4FFC0184918823D1F090E061
:10033000880F991FFC01E759FF4FA591B491FC016B
:10034000ED58FF4FC591D491623071F49FB7F89486
:100350003C91822F809583238C93E8812E2B2883D8
:100360009FBFDF91CF9108958FB7F894EC912E2B1A
:100370002C938FBFF6CF8E50806480937C00809149
:100380007A00806480937A0080917A0086FDFCCFA9
:10039000809178009091790008953FB7F89480910A
:1003A000AE019091AF01A091B001B091B10126B51D
:1003B000A89B05C02F3F19F00196A11DB11D3FBF9D
:1003C000BA2FA92F982F8827BC01CD01620F711D6C
:1003D000811D911D42E0660F771F881F991F4A9566
:1003E000D1F708958F929F92AF92BF92CF92DF92F2
:1003F000EF92FF924B015C010E94CD016B017C01E9
:100400000E94CD016C197D098E099F09683E7340D9
:1004100081059105A8F321E0821A9108A108B1088D
:1004200088EEC80E83E0D81EE11CF11C81149104F3
:10043000A104B10429F7FF90EF90DF90CF90BF9017
:10044000AF909F908F900895CF92DF92EF92FF929E
:100450000F931F93CF93DF93CDB7DEB7C054D14036
:100460000FB6F894DEBF0FBECDBF2FB7F8948091C2
:10047000B2019091B301A091B401B091B5012FBF29
:1004800040917402509175026091760270917702EA
:100490008C019D01041B150B260B370BB901A8011C
:1004A000403D57406105710590F480917C02C05C2D
:1004B000DE4F0FB6F894DEBF0FBECDBFDF91CF91F8
:1004C0001F910F91FF90EF90DF90CF900895809350
:1004D000740290937502A0937602B0937702109203
:1004E0006F0210926E0210926D0210926C021092C6
:1004F0006B0262E0809170020E948A0161E070E00C
:1005000080E090E00E94F20161E0809170020E9420
:100510008A0160E0809170020E943E018091710228
:100520008551823020F58BE291E10197F1F762E08D
:10053000809170020E948A0180917D0290E0823059
:10054000910538F0880F991F880F991F059701971B
:10055000F1F7F89480E00E948D006F3F7F4F8F4F3E
:100560009F4F61F410927C02789480E0A0CF64E108
:1005700070E080E090E00E94F201D9CF81E00E941B
:100580008D006F3F7F4F8F4F9F4F61F38E010F5F45
:100590001F4F6E018FEBC81A8EEFD80A780180E0EA
:1005A0000E948D00F701608371838283938381E0D1
:1005B0000E948D00F7016483758386839783F8E03A
:1005C000EF0EF11CEC14FD0451F7789430E020E0BC
:1005D000F801C080D180E280F3804481558166813A
:1005E0007781FFEFCF16DF06EF06FF0631F04F3FB2
:1005F0008FEF58076807780719F410927C02B5CF7F
:10060000F90183E0F595E7958A95E1F7E559FD4F06
:100610008081880FC416D506E606F70610F18083A0
:100620002F5F3F4F085F1F4F2832310589F64091F9
:100630006F0220916B0280916C02280F3327331FC9
:1006400080916D02280F311D80916E02820F932FD1
:10065000911D99274817190681F681E080937C0245
:1006600026CF8160DCCFCF92DF92EF92FF920E9483
:100670002402882349F0809171028B3028F08D305C
:1006800040F08551823030F160E070E080EC9FE70F
:100690001CC060916C0270E090E080E00E94CA0B88
:1006A0002DEC3CEC4CEC5DE30E94290C6B017C01D1
:1006B00060916B0270E090E080E00E94CA0B9B01A9
:1006C000AC01C701B6010E94E80CFF90EF90DF90EB
:1006D000CF90089560916B0270916C027627672726
:1006E000762790E080E00E94C80B2DEC3CEC4CECAF
:1006F0005DE30E94290CE9CF9091000189130BC0A2
:10070000E8E6F0E0E4919FEF90930001E13049F0DA
:1007100028F0E23061F060E00C943E0110926E002F
:10072000FACF90916F009D7F90936F00F4CF9091DE
:1007300070009D7F9093700091E09093B000909135
:10074000B100987F94609093B1001092B300E3CF12
:10075000AF92BF92CF92DF92EF92FF920F931F93CF
:10076000CF93DF936C017B018B01040F151FEB010D
:100770005E01AE18BF08C017D10759F06991D601C4
:10078000ED91FC910190F081E02DC6010995892B36
:1007900079F7C501DF91CF911F910F91FF90EF90F5
:1007A000DF90CF90BF90AF900895FC01538D448DA2
:1007B000252F30E0842F90E0821B930B541710F00C
:1007C000CF96089501970895FC01918D828D981719
:1007D00061F0A28DAE0FBF2FB11D5D968C91928DF1
:1007E0009F5F9F73928F90E008958FEF9FEF089522
:1007F000FC01918D828D981731F0828DE80FF11DEB
:10080000858D90E008958FEF9FEF0895FC01918D05
:10081000228D892F90E0805C9F4F821B91098F73FE
:100820009927089586EB91E00E94060421E0892B28
:1008300009F420E0822F089580E090E0892B29F0D0
:100840000E94120481110C9400000895FC01A48DF3
:10085000A80FB92FB11DA35ABF4F2C91848D90E0E2
:1008600001968F739927848FA689B7892C93A089C5
:10087000B1898C91837080648C93938D848D98134F
:1008800006C00288F389E02D80818F7D80830895E2
:10089000EF92FF920F931F93CF93DF93EC0181E0D0
:1008A000888F9B8D8C8D98131AC0E889F989808177
:1008B00085FF15C09FB7F894EE89FF896083E889AA
:1008C000F98980818370806480839FBF81E090E09C
:1008D000DF91CF911F910F91FF90EF900895F62E29
:1008E0000B8D10E00F5F1F4F0F731127E02E8C8DC3
:1008F0008E110CC00FB607FCFACFE889F989808108
:1009000085FFF5CFCE010E942604F1CFEB8DEC0FD1
:10091000FD2FF11DE35AFF4FF0829FB7F8940B8F24
:10092000EA89FB8980818062CFCFCF93DF93EC018E
:10093000888D8823B9F0AA89BB89E889F9898C91C7
:1009400085FD03C0808186FD0DC00FB607FCF7CF83
:100950008C9185FFF2CF808185FFEDCFCE010E9483
:100960002604E9CFDF91CF910895089590E080E0CB
:100970000895CF93DF93EC0160E08E810E943E01E9
:1009800061E08E810E943E0160E08E810E943E0106
:100990008BE891E00197F1F7DF91CF910895CF9225
:1009A000DF92EF92FF920F931F93CF93DF936C012F
:1009B0007C0187E0E80EF11CD0E0C0E0062F10E0DB
:1009C000B8010C2E02C0759567950A94E2F7617024
:1009D000F70181917F010E943E012196C430D1052B
:1009E00079F7C601DF91CF911F910F91FF90EF90A2
:1009F000DF90CF900C94B904CF92DF92EF92FF92E8
:100A00000F931F93CF93DF93EC01F62E642F8C810D
:100A10000E943E018D818F3F19F060E00E943E01EF
:100A20000F2D10E08F8584FF25C06E0187E0C80E72
:100A3000D11CF12CE12CB8010E2C02C075956795E4
:100A40000A94E2F76170F60181916F010E943E0104
:100A5000FFEFEF1AFF0A88E0E816F10461F7CE0114
:100A6000DF91CF911F910F91FF90EF90DF90CF908A
:100A70000C94B904B80184E0759567958A95E1F7FF
:100A8000CE010E94CF046F2DCE01DF91CF911F9137
:100A90000F91FF90EF90DF90CF900C94CF0440E047
:100AA000682F83E592E00C94FC04CF93DF936230CF
:100AB00029F49091620298609093620260936602BA
:100AC0001092670290E49093680280936902805CC0
:100AD00080936A0261E0809157020E948A018091AE
:100AE00058028F3F19F061E00E948A0161E0809115
:100AF00059020E948A01C3E5D2E09E01235532408B
:100B00008091620284FD0BC084E090E0219628175A
:100B1000390744F461E08E810E948A01EECF88E0BB
:100B200090E0F4CF8BE39DE00197F1F760E08091D6
:100B300057020E943E0160E0809159020E943E01EE
:100B4000809158028F3F19F060E00E943E01809131
:100B5000620284FD39C063E083E592E00E94CF0425
:100B6000CBE4D6E4CE010197F1F763E083E592E0B0
:100B70000E94CF042197F1F763E083E592E00E94A1
:100B8000CF0483E592E00197F1F762E083E592E01C
:100B90000E94CF048091620280620E944F0584E02F
:100BA000809363028CE00E944F0581E00E944F0514
:100BB0008BE39FE10197F1F782E08093640286E086
:100BC000DF91CF910C944F0580620E944F058BE41A
:100BD00096E40197F1F78091620280620E944F05CE
:100BE00083E592E00197F1F78091620280620E94B2
:100BF0004F05D0CF41E00E94FC0481E090E00895D1
:100C0000FB0101900020E9F73197AF01461B570B1C
:100C1000DC01ED91FC910280F381E02D09948F922B
:100C20009F92AF92BF92EF92FF920F931F93CF9339
:100C3000DF93CDB7DEB7A1970FB6F894DEBF0FBE36
:100C4000CDBF7C01FA01CB0119A2223008F42AE0C1
:100C50008E010F5D1F4F822E912CB12CA12CBF0154
:100C6000A50194010E94060EF901CA016A300CF533
:100C7000605DD8016E938D01232B242B252B79F7F2
:100C800090E080E0109721F0BD01C7010E940006AE
:100C9000A1960FB6F894DEBF0FBECDBFDF91CF9106
:100CA0001F910F91FF90EF90BF90AF909F908F900A
:100CB0000895695CDECFCF92DF92EF92FF920F939F
:100CC0001F93CF93DF936B01770FEE08FF08F7FEBA
:100CD0001FC0EC01E881F9810190F081E02D6DE207
:100CE00009958C0144275527BA014C195D096E09F5
:100CF0007F092AE0CE010E940F06800F911FDF912D
:100D0000CF911F910F91FF90EF90DF90CF900895BA
:100D10002AE0B701A601DF91CF911F910F91FF90BB
:100D2000EF90DF90CF900C940F064F925F926F92EE
:100D30007F928F929F92AF92BF92CF92DF92EF926B
:100D4000FF920F931F93CF936B017C01742EAC0124
:100D50009B010E94010E6FE171E0811126C04601E6
:100D60005701E894B7F82FEF3FEF4FE75FE7C50172
:100D7000B4010E94010E81110CC02FEF3FEF4FE72D
:100D80005FE7C501B4010E94C30B63E271E018166E
:100D900064F02FEF3FEF4FE75FE4C701B6010E9419
:100DA000FC0D1816ACF467E271E086EB91E0CF9190
:100DB0001F910F91FF90EF90DF90CF90BF90AF9079
:100DC0009F908F907F906F905F904F900C94000653
:100DD0002FEF3FEF4FE75FECC701B6010E94C30B57
:100DE00087FDE1CF20E030E0A901C701B6010E94F4
:100DF000C30B10E000E087FF0AC06DE286EB91E0D4
:100E00000E9448048C01F7FAF094F7F8F094C0E0DF
:100E100060E070E080E09FE37C1641F020E030E08D
:100E200040E251E40E94540DCF5FF6CFA701960136
:100E30000E94E80C2B013C010E94CD0D4B015C018E
:100E40002AE0BC01A40186EB91E00E940F067C0120
:100E5000E00EF11ECC23D1F1C501B4010E94C80BF4
:100E60009B01AC01C301B2010E94E70C4B015C0184
:100E70006EE286EB91E00E944804E80EF91EC15034
:100E800028F120E030E040E251E4C501B4010E94C5
:100E9000290C2B013C010E94CD0D4B01B12CA12C42
:100EA0002AE0B501A40186EB91E00E940F06E80E4E
:100EB000F91EC501B4010E94C80B9B01AC01C3011E
:100EC000B2010E94E70C4B015C01D9CFC701CF9161
:100ED0001F910F91FF90EF90DF90CF90BF90AF9058
:100EE0009F908F907F906F905F904F9008950C949B
:100EF00000061F920F920FB60F9211242F933F936B
:100F00008F939F93AF93BF938091B2019091B30160
:100F1000A091B401B091B5013091AD0123E0230F50
:100F20002D3758F50196A11DB11D2093AD01809379
:100F3000B2019093B301A093B401B093B501809135
:100F4000AE019091AF01A091B001B091B1010196B5
:100F5000A11DB11D8093AE019093AF01A093B0018C
:100F6000B093B101BF91AF919F918F913F912F911C
:100F70000F900FBE0F901F90189526E8230F029632
:100F8000A11DB11DD2CF1F920F920FB60F92112447
:100F90002F933F934F935F936F937F938F939F9381
:100FA000AF93BF93EF93FF938091A1019091A20122
:100FB000A091A301B091A401892B8A2B8B2BD1F195
:100FC00090919C01E0919D01F0919E018081892783
:100FD00080838091A1019091A201A091A301B09181
:100FE000A401181619061A061B069CF48091A1018B
:100FF0009091A201A091A301B091A4010197A10930
:10100000B1098093A1019093A201A093A301B09391
:10101000A401FF91EF91BF91AF919F918F917F912B
:101020006F915F914F913F912F910F900FBE0F9055
:101030001F901895809100010E947C03EACF1F92B7
:101040000F920FB60F9211242F933F934F935F93FC
:101050006F937F938F939F93AF93BF93EF93FF9380
:1010600086EB91E00E942604FF91EF91BF91AF9132
:101070009F918F917F916F915F914F913F912F91B0
:101080000F900FBE0F901F9018951F920F920FB6E2
:101090000F9211242F938F939F93EF93FF93E091DF
:1010A000C601F091C7018081E091CC01F091CD01A2
:1010B00082FD1BC090818091CF018F5F8F73209143
:1010C000D001821741F0E091CF01F0E0EA54FE4FE9
:1010D000958F8093CF01FF91EF919F918F912F91E9
:1010E0000F900FBE0F901F9018958081F4CFE6EB04
:1010F000F1E01382128288EE93E0A0E0B0E08483F6
:101100009583A683B78385E091E09183808385EC06
:1011100090E09587848784EC90E09787868780ECC1
:1011200090E0918B808B81EC90E0938B828B82ECB2
:1011300090E0958B848B86EC90E0978B868B118E5C
:10114000128E138E148EABE6B2E089E015968C9366
:1011500015978BE016968C931697E8EBF0E0E491E8
:101160001796EC931797E4EAF0E0E4911896EC9365
:10117000189740E85EE360E070E01D964D935D9344
:101180006D937C935097E3E5F2E01382128287E13E
:1011900091E09183808386E084838FEF858385E06F
:1011A000868384E0878383E0808782E0818781E093
:1011B00082871386148615861686178661E080E17D
:1011C0000C945505CF93DF9300D000D0CDB7DEB798
:1011D000789484B5826084BD84B5816084BD85B512
:1011E000826085BD85B5816085BD80916E0081601E
:1011F00080936E00109281008091810082608093C4
:1012000081008091810081608093810080918000C5
:101210008160809380008091B10084608093B100F0
:101220008091B00081608093B00080917A008460EA
:1012300080937A0080917A00826080937A00809116
:101240007A00816080937A0080917A008068809330
:101250007A001092C10062E0809170020E948A01BF
:101260002FB7F8948091B2019091B301A091B4018D
:10127000B091B5012FBF805D9740A109B10980935E
:10128000740290937502A0937602B093770287E37D
:1012900080937D0262E08CE00E94550561E087E06A
:1012A0000E948A01E4E8F0E0E491E33009F4EDC043
:1012B00050F4E130E1F0E23009F4E1C060E087E0B1
:1012C0000E943E0119C0E73009F4EBC0E83009F490
:1012D000F1C0E43099F780918000806280938000B3
:1012E00082E390E090938B0080938A0005C084B5E0
:1012F000806884BD82E387BDE091C601F091C7019B
:1013000082E08083E091C201F091C3011082E091FC
:10131000C401F091C5018FEC80831092CE01E09161
:10132000CA01F091CB0186E08083E091C801F09181
:10133000C901808180618083E091C801F091C90179
:10134000808188608083E091C801F091C90180812B
:1013500080688083E091C801F091C90180818F7D10
:10136000808338E7432E512C612C712C81E00E9440
:101370004F058BE39FE10197F1F7E1E08091660271
:101380008111E0E0E195F0E0ED5AFD4F848980683D
:101390000E944F056BE271E083E592E00E947707BF
:1013A0000E942402882309F48EC00E94C5000E9476
:1013B000C60D6B017A83698383E592E00E945B0628
:1013C00060E371E083E592E00E94770762E371E0F9
:1013D00083E592E00E9477070E9433030E94C60DC6
:1013E0004B0183E592E00E945B0668E371E083E5D0
:1013F00092E00E9477078EE00E94BB018C01E09191
:101400006602E23008F064C0E150F0E0ED5AFD4FB2
:10141000848980680E944F056AE371E083E592E069
:101420000E947707B80183E592E00E945B068FE097
:101430000E94BB019C838B836FE371E083E592E0A4
:101440000E9477076B817C8183E592E00E945B06B6
:1014500089819A818397F4F50A3892E01907D4F5C7
:10146000EB81FC81EE3EF240ACF58B819C818F3E9E
:1014700092400CF00BC188E00E947C0307C184B548
:10148000806284BD82E388BD37CF80918000806810
:101490008093800082E390E090938900809388009D
:1014A0002BCF8091B00080688093B00082E380935E
:1014B000B30022CF8091B00080628093B00082E3BD
:1014C0008093B40019CF60E070E080EC9FE76FCFAD
:1014D000E1E09BCF80910001883031F5E8E6F0E053
:1014E000349037FCCAC061E088E00E948A01332052
:1014F00009F493C0F2E03F12A4C08091B100887F4C
:1015000083608093B10085EA8093B3004092A1018B
:101510005092A2016092A3017092A4018091700088
:10152000826080937000A9C08F3F09F0A6C088E058
:1015300080930001E8E6F0E03490FFEF3F1609F4F5
:101540009CC021E0321639F1321658F082E038168C
:1015500009F440C037FC91C061E088E00E948A0134
:10156000C9CF14BC15BC84B5826084BD85B58160CB
:1015700085BDE3EAF0E08491E82FF0E0EE0FFF1F75
:10158000ED58FF4F85919491E7EBF0E084918093C3
:10159000A001312CA8CF1092800010928100809180
:1015A00081008860809381008091810081608093B8
:1015B0008100E3EAF0E08491E82FF0E0EE0FFF1FF6
:1015C000ED58FF4F85919491E7EBF0E08491809383
:1015D0009F0189CF1092B0001092B1008091B000AD
:1015E00082608093B0008091B10081608093B100EF
:1015F000E3EAF0E08491E82FF0E0EE0FFF1FED58F2
:10160000FF4F8591949190939E0180939D01E7EB0C
:10161000F0E0849180939C0166CF85B5887F8360DC
:1016200085BD82E587BD4092A9015092AA016092D2
:10163000AB017092AC0180916E00826080936E006D
:101640001CC021E0321253C080918100887F8160EC
:101650008093810084ED94E19093890080938800C9
:101660004092A5015092A6016092A7017092A80134
:1016700080916F00826080936F00E981FA81B39757
:101680002CF40B3882E018070CF4EFCEB601DD0C19
:10169000880B990B0E94CA0B9B01AC010E94010EA2
:1016A00081110CC0B401990C880B990B0E94CA0BD4
:1016B0009B01AC010E94010E882311F165E471E0E9
:1016C00086EB91E00E94000664E671E086EB91E013
:1016D0000E94000680E090E0892B09F447CE0E942A
:1016E0001204882309F442CE0E9400003FCE92E00B
:1016F000391621F03110C1CF84ED94CF84ED04CFA1
:1017000067E671E086EB91E00E9477070E94240271
:101710008823A1F10E94C50042E00E94950664E77B
:1017200071E086EB91E00E9477070E94330342E06C
:101730000E9495066EE771E086EB91E00E947707C4
:10174000B80186EB91E00E945B066CE871E086EBE5
:1017500091E00E9477076B817C8186EB91E00E948B
:101760005B0664E671E086EB91E00E94000664EFA0
:1017700071E080E090E00E94F201ACCF60E070E0A8
:1017800080EC9FE7C9CF0E94050C08F481E0089522
:10179000E89409C097FB3EF490958095709561950B
:1017A0007F4F8F4F9F4F9923A9F0F92F96E9BB27C1
:1017B0009395F695879577956795B795F111F8CF3D
:1017C000FAF4BB0F11F460FF1BC06F5F7F4F8F4FA8
:1017D0009F4F16C0882311F096E911C0772321F09E
:1017E0009EE8872F762F05C0662371F096E8862F36
:1017F00070E060E02AF09A95660F771F881FDAF78D
:10180000880F9695879597F90895990F0008550FB9
:10181000AA0BE0E8FEEF16161706E807F907C0F076
:1018200012161306E407F50798F0621B730B840B7E
:10183000950B39F40A2661F0232B242B252B21F458
:1018400008950A2609F4A140A6958FEF811D811DF8
:1018500008950E943C0C0C94AD0C0E949F0C38F033
:101860000E94A60C20F0952311F00C94960C0C9479
:101870009C0C11240C94E10C0E94BE0C70F3959FFB
:10188000C1F3950F50E0551F629FF001729FBB2777
:10189000F00DB11D639FAA27F00DB11DAA1F649F13
:1018A0006627B00DA11D661F829F2227B00DA11DC6
:1018B000621F739FB00DA11D621F839FA00D611D4C
:1018C000221F749F3327A00D611D231F849F600D6D
:1018D000211D822F762F6A2F11249F5750409AF096
:1018E000F1F088234AF0EE0FFF1FBB1F661F771F22
:1018F000881F91505040A9F79E3F510580F00C94ED
:10190000960C0C94E10C5F3FE4F3983ED4F386957B
:1019100077956795B795F795E7959F5FC1F7FE2B8C
:10192000880F911D9695879597F9089597F99F6768
:1019300080E870E060E008959FEF80EC0895002457
:101940000A941616170618060906089500240A9424
:1019500012161306140605060895092E0394000CAA
:1019600011F4882352F0BB0F40F4BF2B11F460FF39
:1019700004C06F5F7F4F8F4F9F4F089557FD905862
:10198000440F551F59F05F3F71F04795880F97FB43
:10199000991F61F09F3F79F08795089512161306FD
:1019A0001406551FF2CF4695F1DF08C0161617062C
:1019B0001806991FF1CF8695710561050894089561
:1019C000E894BB2766277727CB0197F908955058ED
:1019D000BB27AA270E94FF0C0C94AD0C0E949F0C01
:1019E00038F00E94A60C20F039F49F3F19F426F439
:1019F0000C949C0C0EF4E095E7FB0C94960CE92FEC
:101A00000E94BE0C58F3BA17620773078407950744
:101A100020F079F4A6F50C94E00C0EF4E0950B2E72
:101A2000BA2FA02D0B01B90190010C01CA01A00130
:101A30001124FF27591B99F0593F50F4503E68F18B
:101A40001A16F040A22F232F342F4427585FF3CFCC
:101A5000469537952795A795F0405395C9F77EF49D
:101A60001F16BA0B620B730B840BBAF09150A1F0E6
:101A7000FF0FBB1F661F771F881FC2F70EC0BA0F6C
:101A8000621F731F841F48F4879577956795B795F4
:101A9000F7959E3F08F0B0CF9395880F08F09927EF
:101AA000EE0F9795879508950E94680D0C94AD0CE4
:101AB0000E94A60C58F00E949F0C40F029F45F3F52
:101AC00029F00C94960C51110C94E10C0C949C0C84
:101AD0000E94BE0C68F39923B1F3552391F3951B33
:101AE000550BBB27AA2762177307840738F09F5F3F
:101AF0005F4F220F331F441FAA1FA9F335D00E2EAC
:101B00003AF0E0E832D091505040E695001CCAF718
:101B10002BD0FE2F29D0660F771F881FBB1F2617DB
:101B200037074807AB07B0E809F0BB0B802DBF01B2
:101B3000FF2793585F4F3AF09E3F510578F00C9481
:101B4000960C0C94E10C5F3FE4F3983ED4F3869539
:101B500077956795B795F7959F5FC9F7880F911DA2
:101B60009695879597F90895E1E0660F771F881F8E
:101B7000BB1F621773078407BA0720F0621B730B41
:101B8000840BBA0BEE1F88F7E09508950E94CD0DE7
:101B90006894B1110C94E10C08950E94C60C88F071
:101BA0009F5798F0B92F9927B751B0F0E1F0660F21
:101BB000771F881F991F1AF0BA95C9F714C0B13062
:101BC00091F00E94E00CB1E008950C94E00C672FB6
:101BD000782F8827B85F39F0B93FCCF38695779591
:101BE0006795B395D9F73EF490958095709561957A
:101BF0007F4F8F4F9F4F08950E94050C08F48FEF81
:101C000008950E94050C880B990B0895A1E21A2EE5
:101C1000AA1BBB1BFD010DC0AA1FBB1FEE1FFF1F90
:101C2000A217B307E407F50720F0A21BB30BE40BE0
:101C3000F50B661F771F881F991F1A9469F7609527
:101C40007095809590959B01AC01BD01CF010895E1
:101C5000EE0FFF1F0590F491E02D0994F894FFCF4B
:101C6000FF000000004804A803D50395040604E41F
:101C700003F80300000000FA05A803B604B5046EDB
:101C8000616E00696E66006F76660054203D20002C
:101C900043002048203D20002500432E413A0020EB
:101CA000482E533A004572726F723A2053656E7334
:101CB0006F7220444854206E6F20726573706F6E8F
:101CC00064652E000D0A0054656D7065726174754F
:101CD00072613A002C48756D656461643A002C436A
:101CE000616C69646164416972653A002C48756D84
:0C1CF000656461645375656C6F3A000018
:00000001FF
