:100000000C9463000C948B000C948B000C948B006C
:100010000C948B000C948B000C948B000C94590561
:100020000C948B000C948B000C948B000C948B0024
:100030000C948B000C948B000C948B000C948B0014
:100040000C940F050C948B000C94DB050C94B505F7
:100050000C948B000C948B000C948B000C948B00F4
:100060000C948B000C948B000200000000240027ED
:10007000002A0000000000250028002B00000000DE
:100080000800020100000304070000000000000057
:1000900000000000002300260029000404040404DA
:1000A0000404040202020202020303030303030125
:1000B00002040810204080010204081020010204FC
:1000C000081020000D0611241FBECFEFD8E0DEBFC0
:1000D000CDBF22E0A6E7B1E001C01D92AC35B2076A
:1000E000E1F711E0A0E0B1E0E6E0F8E102C0059040
:1000F0000D92A637B107D9F710E0C3E6D0E004C0EF
:100100002197FE010E94FB0BC236D107C9F70E945E
:1001100047070C94010C0C940000CF92DF92EF92F1
:10012000FF92CF93DF93B0915002A0E08111AB2FEB
:100130008091510290E0880F991FAC014F565F4F9C
:10014000C0905602D0905702E0905802F0905902A9
:1001500030E020E0FA01C591D491E881B90190E046
:1001600080E0EB23EA130AC02F5F3F4F6C157D053B
:100170008E059F0578F36FEF7FEFCB01DF91CF9175
:10018000FF90EF90DF90CF90089590E0FC01E3584E
:10019000FF4F2491FC01E155FF4F3491FC01E556DE
:1001A000FF4FE491EE23C9F0222339F0233001F10F
:1001B000A8F4213019F1223029F1F0E0EE0FFF1FF1
:1001C000ED58FF4FA591B4918FB7F894EC91611160
:1001D00026C030953E233C938FBF08952730A9F069
:1001E0002830C9F0243049F7809180008F7D03C00A
:1001F000809180008F7780938000DFCF84B58F77E8
:1002000084BDDBCF84B58F7DFBCF8091B0008F772D
:100210008093B000D2CF8091B0008F7DF9CF3E2B7C
:10022000DACFCF93DF9390E0FC01E155FF4F2491AB
:1002300085569F4FFC0184918823D1F090E0880F70
:10024000991FFC01E759FF4FA591B491FC01ED58AE
:10025000FF4FC591D491623071F49FB7F8943C91EF
:10026000822F809583238C93E8812E2B28839FBF38
:10027000DF91CF9108958FB7F894EC912E2B2C93AA
:100280008FBFF6CF8E50806480937C0080917A007F
:10029000806480937A0080917A0086FDFCCF809103
:1002A00078009091790008953FB7F89480918C017F
:1002B00090918D01A0918E01B0918F0126B5A89BE0
:1002C00005C02F3F19F00196A11DB11D3FBFBA2FE8
:1002D000A92F982F8827BC01CD01620F711D811DA8
:1002E000911D42E0660F771F881F991F4A95D1F72D
:1002F00008958F929F92AF92BF92CF92DF92EF922A
:10030000FF924B015C010E9454016B017C010E9431
:1003100054016C197D098E099F09683E734081055F
:100320009105A8F321E0821A9108A108B10888EE8E
:10033000C80E83E0D81EE11CF11C81149104A104B5
:10034000B10429F7FF90EF90DF90CF90BF90AF906E
:100350009F908F900895CF92DF92EF92FF920F932C
:100360001F93CF93DF93CDB7DEB7C054D1400FB604
:10037000F894DEBF0FBECDBF2FB7F89480919001E7
:1003800090919101A0919201B09193012FBF409162
:1003900052025091530260915402709155028C01A7
:1003A0009D01041B150B260B370BB901A801403D1D
:1003B00057406105710590F480915A02C05CDE4F90
:1003C0000FB6F894DEBF0FBECDBFDF91CF911F9166
:1003D0000F91FF90EF90DF90CF900895809352029D
:1003E00090935302A0935402B093550210924D0281
:1003F00010924C0210924B0210924A021092490243
:1004000062E080914E020E94110161E070E080E0A4
:1004100090E00E94790161E080914E020E941101FA
:1004200060E080914E020E94C50080914F0285518C
:10043000823020F58BE291E10197F1F762E0809143
:100440004E020E94110180915B0290E08230910582
:1004500038F0880F991F880F991F05970197F1F7BA
:10046000F89480E00E948D006F3F7F4F8F4F9F4F29
:1004700061F410925A02789480E0A0CF64E170E0B9
:1004800080E090E00E947901D9CF81E00E948D0048
:100490006F3F7F4F8F4F9F4F61F38E010F5F1F4F55
:1004A0006E018FEBC81A8EEFD80A780180E00E94A7
:1004B0008D00F701608371838283938381E00E94C2
:1004C0008D00F7016483758386839783F8E0EF0ED0
:1004D000F11CEC14FD0451F7789430E020E0F801B1
:1004E000C080D180E280F38044815581668177812C
:1004F000FFEFCF16DF06EF06FF0631F04F3F8FEF1D
:1005000058076807780719F410925A02B5CFF90115
:1005100083E0F595E7958A95E1F7E75BFD4F8081EC
:10052000880FC416D506E606F70610F180832F5F04
:100530003F4F085F1F4F2832310589F640914D0229
:100540002091490280914A02280F3327331F80915E
:100550004B02280F311D80914C02820F932F911D69
:1005600099274817190681F681E080935A0226CF11
:100570008160DCCF9091000189130BC0E8E6F0E0C8
:10058000E4919FEF90930001E13049F028F0E230D0
:1005900061F060E00C94C50010926E00FACF90916B
:1005A0006F009D7F90936F00F4CF909170009D7FBE
:1005B0009093700091E09093B0009091B100987F7B
:1005C00094609093B1001092B300E3CFAF92BF92CA
:1005D000CF92DF92EF92FF920F931F93CF93DF930F
:1005E0006C017B018B01040F151FEB015E01AE183E
:1005F000BF08C017D10759F06991D601ED91FC9160
:100600000190F081E02DC6010995892B79F7C5018C
:10061000DF91CF911F910F91FF90EF90DF90CF90DE
:10062000BF90AF900895FC01538D448D252F30E08D
:10063000842F90E0821B930B541710F0CF960895EF
:1006400001970895FC01918D828D981761F0A28D1C
:10065000AE0FBF2FB11D5D968C91928D9F5F9F73E2
:10066000928F90E008958FEF9FEF0895FC01918D98
:10067000828D981731F0828DE80FF11D858D90E005
:1006800008958FEF9FEF0895FC01918D228D892FA2
:1006900090E0805C9F4F821B91098F73992708958A
:1006A00084E991E00E94440321E0892B09F420E0D1
:1006B000822F089580E090E0892B29F00E9450035A
:1006C00081110C9400000895FC01A48DA80FB92F8E
:1006D000B11DA35ABF4F2C91848D90E001968F736A
:1006E0009927848FA689B7892C93A089B1898C9189
:1006F000837080648C93938D848D981306C00288D8
:10070000F389E02D80818F7D80830895EF92FF92A1
:100710000F931F93CF93DF93EC0181E0888F9B8D24
:100720008C8D98131AC0E889F989808185FF15C0DE
:100730009FB7F894EE89FF896083E889F989808101
:100740008370806480839FBF81E090E0DF91CF91D0
:100750001F910F91FF90EF900895F62E0B8D10E0F2
:100760000F5F1F4F0F731127E02E8C8D8E110CC061
:100770000FB607FCFACFE889F989808185FFF5CFAC
:10078000CE010E946403F1CFEB8DEC0FFD2FF11D24
:10079000E35AFF4FF0829FB7F8940B8FEA89FB89E9
:1007A00080818062CFCFCF93DF93EC01888D882347
:1007B000B9F0AA89BB89E889F9898C9185FD03C0C4
:1007C000808186FD0DC00FB607FCF7CF8C9185FFA9
:1007D000F2CF808185FFEDCFCE010E946403E9CF87
:1007E000DF91CF910895089590E080E00895FC0195
:1007F00001900020E9F73197AF01481B590BBC016C
:1008000084E991E00C94E6028F929F92AF92BF929E
:100810000F931F93CF93DF93CDB7DEB7A1970FB69A
:10082000F894DEBF0FBECDBF19A2423008F44AE0F3
:100830008E010F5D1F4F842E912CB12CA12CA50190
:1008400094010E94D90BE62FB901CA01EA30F4F4F1
:10085000E05DD801EE938D01232B242B252B79F716
:1008600090E080E0109719F0CD010E94F703A19667
:100870000FB6F894DEBF0FBECDBFDF91CF911F91B1
:100880000F91BF90AF909F908F900895E95CE1CF5A
:10089000CF92DF92EF92FF92CF93DF936B017C01B7
:1008A0006DE284E991E00E948603EC0166277727D8
:1008B000CB016C197D098E099F094AE00E9404044E
:1008C0008C0F9D1FDF91CF91FF90EF90DF90CF9025
:1008D0000895BC01990F880B990B97FD0C9448045F
:1008E0004AE00C940404CF93DF93EC0160E08E8126
:1008F0000E94C50061E08E810E94C50060E08E818B
:100900000E94C5008BE891E00197F1F7DF91CF914C
:100910000895CF92DF92EF92FF920F931F93CF93A0
:10092000DF936C017C0187E0E80EF11CD0E0C0E0B1
:10093000062F10E0B8010C2E02C0759567950A9439
:10094000E2F76170F70181917F010E94C500219655
:10095000C430D10579F7C601DF91CF911F910F9176
:10096000FF90EF90DF90CF900C947304CF92DF92C2
:10097000EF92FF920F931F93CF93DF93EC01F62E2C
:10098000642F8C810E94C5008D818F3F19F060E03B
:100990000E94C5000F2D10E08F8584FF25C06E01D9
:1009A00087E0C80ED11CF12CE12CB8010E2C02C03E
:1009B000759567950A94E2F76170F60181916F0170
:1009C0000E94C500FFEFEF1AFF0A88E0E816F10465
:1009D00061F7CE01DF91CF911F910F91FF90EF90C2
:1009E000DF90CF900C947304B80184E075956795FF
:1009F0008A95E1F7CE010E9489046F2DCE01DF9127
:100A0000CF911F910F91FF90EF90DF90CF900C94BA
:100A1000890441E00E94B60481E090E008951F92AD
:100A20000F920FB60F9211242F933F938F939F93A2
:100A3000AF93BF938091900190919101A091920109
:100A4000B091930130918B0123E0230F2D3758F59E
:100A50000196A11DB11D20938B018093900190936D
:100A60009101A0939201B093930180918C01909198
:100A70008D01A0918E01B0918F010196A11DB11D34
:100A800080938C0190938D01A0938E01B0938F0180
:100A9000BF91AF919F918F913F912F910F900FBE7A
:100AA0000F901F90189526E8230F0296A11DB11DE7
:100AB000D2CF1F920F920FB60F9211242F933F9314
:100AC0004F935F936F937F938F939F93AF93BF9356
:100AD000EF93FF9380917B0190917C01A0917D0128
:100AE000B0917E01892B8A2B8B2BD1F190917601CD
:100AF000E0917701F091780180818927808380914E
:100B00007B0190917C01A0917D01B0917E0118162E
:100B100019061A061B069CF480917B0190917C01BA
:100B2000A0917D01B0917E010197A109B109809347
:100B30007B0190937C01A0937D01B0937E01FF9196
:100B4000EF91BF91AF919F918F917F916F915F9145
:100B50004F913F912F910F900FBE0F901F901895BE
:100B6000809100010E94BA02EACF1F920F920FB645
:100B70000F9211242F933F934F935F936F937F9323
:100B80008F939F93AF93BF93EF93FF9384E991E08B
:100B90000E946403FF91EF91BF91AF919F918F915C
:100BA0007F916F915F914F913F912F910F900FBE69
:100BB0000F901F9018951F920F920FB60F9211244D
:100BC0002F938F939F93EF93FF93E091A401F09164
:100BD000A5018081E091AA01F091AB0182FD1BC0CB
:100BE00090818091AD018F5F8F732091AE0182174C
:100BF00041F0E091AD01F0E0EC56FE4F958F80930F
:100C0000AD01FF91EF919F918F912F910F900FBEAA
:100C10000F901F9018958081F4CFCF93DF9310929F
:100C200097011092960188EE93E0A0E0B0E08093E7
:100C3000980190939901A0939A01B0939B0185E04C
:100C400091E0909395018093940185EC90E09093CE
:100C5000A1018093A00184EC90E09093A301809384
:100C6000A20180EC90E09093A5018093A40181EC17
:100C700090E09093A7018093A60182EC90E090937E
:100C8000A9018093A80186EC90E09093AB0180933A
:100C9000AA011092AD011092AE011092AF01109214
:100CA000B00189E080934E028BE080934F02E8EB25
:100CB000F0E0E491E0935002E4EAF0E0E491E093A4
:100CC000510280E89EE3A0E0B0E08093560290934A
:100CD0005702A0935802B093590210923402109216
:100CE000330287E191E0909332028093310286E0F3
:100CF000809335028FEF8093360285E08093370230
:100D000084E08093380283E08093390282E080930C
:100D10003A0281E080933B0210923C0210923D0225
:100D200010923E0210923F021092400280934402C1
:100D30001092450280E48093460280E1809347024E
:100D400080E58093480261E086E00E941101809175
:100D500036028F3F19F061E00E94110161E080913D
:100D600037020E941101C1E3D2E09E0121533240BB
:100D70008091400284FD0BC084E090E0219628170A
:100D8000390744F461E08E810E941101EECF88E0C2
:100D900090E0F4CF8BE39DE00197F1F760E0809164
:100DA00035020E94C50060E0809137020E94C500B4
:100DB000809136028F3F19F060E00E94C50060917B
:100DC000400264FD45C063E081E392E00E94890433
:100DD000CBE4D6E4CE010197F1F763E081E392E042
:100DE0000E9489042197F1F763E081E392E00E9479
:100DF000890483E592E00197F1F762E081E392E0F4
:100E00000E94890460914002606240E081E392E0C8
:100E10000E94B60484E08093410240E06CE081E3EC
:100E200092E00E94B60440E061E081E392E00E941B
:100E3000B6048BE39FE10197F1F782E080934202D1
:100E400040E066E081E392E0DF91CF910C94B6043C
:100E5000606240E081E392E00E94B6048BE496E495
:100E60000197F1F760914002606240E081E392E017
:100E70000E94B60483E592E00197F1F76091400289
:100E8000606240E081E392E00E94B604BBCF7894B8
:100E900084B5826084BD84B5816084BD85B582607F
:100EA00085BD85B5816085BD80916E008160809330
:100EB0006E00109281008091810082608093810099
:100EC00080918100816080938100809180008160A9
:100ED000809380008091B10084608093B100809104
:100EE000B00081608093B00080917A00846080932C
:100EF0007A0080917A00826080937A0080917A00F3
:100F0000816080937A0080917A00806880937A0073
:100F10001092C10062E080914E020E9411012FB731
:100F2000F8948091900190919101A0919201B091DB
:100F300093012FBF805D9740A109B10980935202B0
:100F400090935302A0935402B093550287E3809389
:100F50005B02E091A401F091A50182E08083E09121
:100F6000A001F091A1011082E091A201F091A301F2
:100F70008FEC80831092AC01E091A801F091A9015F
:100F800086E08083E091A601F091A70180818061D5
:100F90008083E091A601F091A70180818860808321
:100FA000E091A601F091A701808180688083E091A3
:100FB000A601F091A70180818F7D808344ED242ECE
:100FC00044E1342E58E6852E50E0952E67EBA62E90
:100FD00060E0B62E78E7472E512C612C712C0E94D0
:100FE000AB01882341F080914F028C3009F463C03B
:100FF00038F48B30F1F060E070E080EC9FE741C0A6
:1010000085518230C0F7C0914B026C2F70E0762F73
:10101000662766277F7780914C02682B90E080E0FE
:101020000E94120A2DEC3CEC4CEC5DE30E94730A2A
:101030005EC060914B0270E090E080E00E94120A76
:101040006B017C01C0914C02C7FF0AC0AC019B013F
:1010500060E070E080E89FEB0E94310B6B017C0147
:10106000CF706C2F70E090E080E00E94140A2DECAD
:101070003CEC4CEC5DE30E94730AA70196010E94D0
:10108000320B0E949E0B8B0170938A016093890141
:101090000E94AB01882351F080914F028B3030F0D9
:1010A0008D3048F18551823008F489C060E070E0ED
:1010B00080EC9FE73CC0C0914B026C2F70E090E049
:1010C00080E00E94120A6B017C0160914C026F70FB
:1010D00070E090E080E00E94140A2DEC3CEC4CECB7
:1010E0005DE30E94730AA70196010E94320BC7FFBD
:1010F000C8CF9058C6CF60914A0270E090E080E07F
:101100000E94140A2DEC3CEC4CEC5DE30E94730A47
:101110006B017C016091490270E090E080E00E94E8
:10112000140A9B01AC01C701B6010E94320B0E9458
:101130009E0B70938801609387018EE00E944201AC
:101140007C018FE00E944201EC010332110574F42E
:101150008AE8E81682E0F8064CF4009189011091C3
:101160008A01CE3E92E0D9070CF4E6C080910001DE
:101170008830B9F5F401149117FDD2C061E088E020
:101180000E941101112309F49DC0123009F0AEC074
:101190008091B100887F83608093B10085EA80935D
:1011A000B30040927B0150927C0160927D0170926D
:1011B0007E0180917000826080937000B1C0609168
:1011C000490270914A0276276727762790E080E0EF
:1011D0000E94120A2DEC3CEC4CEC5DE30E94730A79
:1011E000A6CF8F3F09F09CC088E080930001F401F6
:1011F00014911F3F09F494C0113021F150F01230C6
:1012000009F43EC017FD8CC061E088E00E94110126
:10121000BCCF14BC15BC84B5826084BD85B581602B
:1012200085BDE3EAF0E08491E82FF0E0EE0FFF1FC8
:10123000ED58FF4F85919491F501849180937A0147
:1012400010E09CCF1092800010928100809181006C
:10125000886080938100809181008160809381000B
:10126000E3EAF0E08491E82FF0E0EE0FFF1FED5885
:10127000FF4F85919491F5018491809379017ECF00
:101280001092B0001092B1008091B0008260809303
:10129000B0008091B10081608093B100E3EAF0E09A
:1012A0008491E82FF0E0EE0FFF1FED58FF4F85917E
:1012B00094919093780180937701F50184918093C4
:1012C00076015CCF85B5887F836085BD82E587BD6B
:1012D0004092830150928401609285017092860150
:1012E00080916E00826080936E001AC0113009F008
:1012F0005BC080918100887F816080938100309203
:1013000089002092880040927F0150928001609273
:1013100081017092820180916F00826080936F00E2
:101320000091890110918A010332110564F4FBE8F0
:10133000EF16F2E0FF063CF4CF3E82E0D8071CF443
:1013400088E00E94BA02B801110F880B990B0E9425
:10135000140A9B01AC010E94D40B811110C0609152
:10136000870170918801072E000C880B990B0E9451
:10137000140A9B01AC010E94D40B8823E9F08FE191
:1013800091E00E94F7038EE391E00E94F703E0E012
:10139000F0E0EF2B09F423CE0E945003882309F4D8
:1013A0001ECE0E9400001BCE123021F01111B8CFCA
:1013B00084ED8DCF84EDF3CE81E491E00E94F703BC
:1013C0008091890190918A010E9469048EE491E0E4
:1013D0000E94F70380918701909188010E9469041F
:1013E00088E591E00E94F703C7010E94690486E640
:1013F00091E00E94F703BE01DD0F880B990B97FF68
:101400000DC00E9448048EE391E00E94F70364EF50
:1014100071E080E090E00E947901B9CF4AE00E943B
:101420000404F1CFE89409C097FB3EF490958095B1
:10143000709561957F4F8F4F9F4F9923A9F0F92F9A
:1014400096E9BB279395F695879577956795B79518
:10145000F111F8CFFAF4BB0F11F460FF1BC06F5FFE
:101460007F4F8F4F9F4F16C0882311F096E911C010
:10147000772321F09EE8872F762F05C0662371F031
:1014800096E8862F70E060E02AF09A95660F771F45
:10149000881FDAF7880F9695879597F90895990F21
:1014A0000008550FAA0BE0E8FEEF16161706E8072E
:1014B000F907C0F012161306E407F50798F0621B4F
:1014C000730B840B950B39F40A2661F0232B242B24
:1014D000252B21F408950A2609F4A140A6958FEF43
:1014E000811D811D08950E94860A0C94F70A0E94AE
:1014F000E90A38F00E94F00A20F0952311F00C94CC
:10150000E00A0C94E60A11240C942B0B0E94080BA1
:1015100070F3959FC1F3950F50E0551F629FF00146
:10152000729FBB27F00DB11D639FAA27F00DB11D5F
:10153000AA1F649F6627B00DA11D661F829F2227E8
:10154000B00DA11D621F739FB00DA11D621F839F6F
:10155000A00D611D221F749F3327A00D611D231F45
:10156000849F600D211D822F762F6A2F11249F5793
:1015700050409AF0F1F088234AF0EE0FFF1FBB1F96
:10158000661F771F881F91505040A9F79E3F510555
:1015900080F00C94E00A0C942B0B5F3FE4F3983E30
:1015A000D4F3869577956795B795F795E7959F5FFF
:1015B000C1F7FE2B880F911D9695879597F9089591
:1015C00097F99F6780E870E060E008959FEF80ECF6
:1015D000089500240A941616170618060906089599
:1015E00000240A9412161306140605060895092EFF
:1015F0000394000C11F4882352F0BB0F40F4BF2B6E
:1016000011F460FF04C06F5F7F4F8F4F9F4F0895AD
:1016100057FD9058440F551F59F05F3F71F04795A3
:10162000880F97FB991F61F09F3F79F08795089588
:10163000121613061406551FF2CF4695F1DF08C0A7
:10164000161617061806991FF1CF869571056105C4
:1016500008940895E894BB2766277727CB0197F96C
:1016600008955058BB27AA270E94490B0C94F70AEB
:101670000E94E90A38F00E94F00A20F039F49F3FF6
:1016800019F426F40C94E60A0EF4E095E7FB0C94AA
:10169000E00AE92F0E94080B58F3BA176207730794
:1016A0008407950720F079F4A6F50C942A0B0EF424
:1016B000E0950B2EBA2FA02D0B01B90190010C0162
:1016C000CA01A0011124FF27591B99F0593F50F47A
:1016D000503E68F11A16F040A22F232F342F4427D2
:1016E000585FF3CF469537952795A795F0405395CA
:1016F000C9F77EF41F16BA0B620B730B840BBAF09A
:101700009150A1F0FF0FBB1F661F771F881FC2F704
:101710000EC0BA0F621F731F841F48F48795779518
:101720006795B795F7959E3F08F0B0CF9395880FD2
:1017300008F09927EE0F9795879508950E94A50BBD
:101740006894B1110C942B0B08950E94100B88F033
:101750009F5798F0B92F9927B751B0F0E1F0660F75
:10176000771F881F991F1AF0BA95C9F714C0B130B6
:1017700091F00E942A0BB1E008950C942A0B672F78
:10178000782F8827B85F39F0B93FCCF386957795E5
:101790006795B395D9F73EF49095809570956195CE
:1017A0007F4F8F4F9F4F08950E944F0A880B990BD0
:1017B0000895A1E21A2EAA1BBB1BFD010DC0AA1F92
:1017C000BB1FEE1FFF1FA217B307E407F50720F0AA
:1017D000A21BB30BE40BF50B661F771F881F991F25
:1017E0001A9469F760957095809590959B01AC016E
:1017F000BD01CF010895EE0FFF1F0590F491E02D7C
:061800000994F894FFCFEB
:10180600FF000000008603E6021303D3034403220D
:10181600033603000000000905E602F403F303455E
:1018260072726F723A2053656E736F722044485419
:10183600206E6F20726573706F6E64652E000D0AE0
:101846000054656D70657261747572613A002C485A
:10185600756D656461643A002C43616C696461640A
:10186600416972653A002C48756D6564616453750B
:06187600656C6F3A0000F2
:00000001FF
